{
  "contractName": "FlipContract",
  "abi": [
    {
      "anonymous": false,
      "inputs": [
        {
          "indexed": true,
          "internalType": "address",
          "name": "previousOwner",
          "type": "address"
        },
        {
          "indexed": true,
          "internalType": "address",
          "name": "newOwner",
          "type": "address"
        }
      ],
      "name": "OwnershipTransferred",
      "type": "event"
    },
    {
      "anonymous": false,
      "inputs": [
        {
          "indexed": true,
          "internalType": "address",
          "name": "user",
          "type": "address"
        },
        {
          "indexed": true,
          "internalType": "uint256",
          "name": "bet",
          "type": "uint256"
        },
        {
          "indexed": true,
          "internalType": "bool",
          "name": "win",
          "type": "bool"
        },
        {
          "indexed": false,
          "internalType": "uint8",
          "name": "side",
          "type": "uint8"
        }
      ],
      "name": "bet",
      "type": "event"
    },
    {
      "anonymous": false,
      "inputs": [
        {
          "indexed": false,
          "internalType": "address",
          "name": "owner",
          "type": "address"
        },
        {
          "indexed": false,
          "internalType": "uint256",
          "name": "funding",
          "type": "uint256"
        }
      ],
      "name": "funded",
      "type": "event"
    },
    {
      "inputs": [],
      "name": "ContractBalance",
      "outputs": [
        {
          "internalType": "uint256",
          "name": "",
          "type": "uint256"
        }
      ],
      "stateMutability": "view",
      "type": "function",
      "constant": true
    },
    {
      "inputs": [],
      "name": "owner",
      "outputs": [
        {
          "internalType": "address",
          "name": "",
          "type": "address"
        }
      ],
      "stateMutability": "view",
      "type": "function",
      "constant": true
    },
    {
      "inputs": [],
      "name": "renounceOwnership",
      "outputs": [],
      "stateMutability": "nonpayable",
      "type": "function"
    },
    {
      "inputs": [
        {
          "internalType": "address",
          "name": "newOwner",
          "type": "address"
        }
      ],
      "name": "transferOwnership",
      "outputs": [],
      "stateMutability": "nonpayable",
      "type": "function"
    },
    {
      "inputs": [
        {
          "internalType": "uint8",
          "name": "side",
          "type": "uint8"
        }
      ],
      "name": "flip",
      "outputs": [
        {
          "internalType": "bool",
          "name": "",
          "type": "bool"
        }
      ],
      "stateMutability": "payable",
      "type": "function",
      "payable": true
    },
    {
      "inputs": [],
      "name": "withdrawAll",
      "outputs": [
        {
          "internalType": "uint256",
          "name": "",
          "type": "uint256"
        }
      ],
      "stateMutability": "nonpayable",
      "type": "function"
    },
    {
      "inputs": [],
      "name": "getBalance",
      "outputs": [
        {
          "internalType": "uint256",
          "name": "",
          "type": "uint256"
        }
      ],
      "stateMutability": "view",
      "type": "function",
      "constant": true
    },
    {
      "inputs": [],
      "name": "getCurrentBalance",
      "outputs": [
        {
          "internalType": "uint256",
          "name": "",
          "type": "uint256"
        }
      ],
      "stateMutability": "view",
      "type": "function",
      "constant": true
    },
    {
      "inputs": [],
      "name": "fundContract",
      "outputs": [],
      "stateMutability": "payable",
      "type": "function",
      "payable": true
    }
  ],
  "bytecode": "0x608060405234801561001057600080fd5b5061002d61002261003260201b60201c565b61003a60201b60201c565b6100fe565b600033905090565b60008060009054906101000a900473ffffffffffffffffffffffffffffffffffffffff169050816000806101000a81548173ffffffffffffffffffffffffffffffffffffffff021916908373ffffffffffffffffffffffffffffffffffffffff1602179055508173ffffffffffffffffffffffffffffffffffffffff168173ffffffffffffffffffffffffffffffffffffffff167f8be0079c531659141344cd1fd0a4f28419497f9722a3daafe3b4186f6b6457e060405160405180910390a35050565b610d388061010d6000396000f3fe6080604052600436106100865760003560e01c8063853828b611610059578063853828b6146101285780638da5cb5b14610153578063a57497101461017e578063bd097e21146101a9578063f2fde38b146101b357610086565b806312065fe01461008b5780633b668059146100b6578063638c0637146100e1578063715018a614610111575b600080fd5b34801561009757600080fd5b506100a06101dc565b6040516100ad91906107ef565b60405180910390f35b3480156100c257600080fd5b506100cb6101e6565b6040516100d891906107ef565b60405180910390f35b6100fb60048036038101906100f69190610848565b6101ec565b6040516101089190610890565b60405180910390f35b34801561011d57600080fd5b5061012661038d565b005b34801561013457600080fd5b5061013d610415565b60405161014a91906107ef565b60405180910390f35b34801561015f57600080fd5b506101686104f1565b60405161017591906108ec565b60405180910390f35b34801561018a57600080fd5b5061019361051a565b6040516101a091906107ef565b60405180910390f35b6101b1610522565b005b3480156101bf57600080fd5b506101da60048036038101906101d59190610933565b610612565b005b6000600154905090565b60015481565b60006002346101fb919061098f565b47101561023d576040517f08c379a000000000000000000000000000000000000000000000000000000000815260040161023490610a6c565b60405180910390fd5b60008260ff161480610252575060018260ff16145b610291576040517f08c379a000000000000000000000000000000000000000000000000000000000815260040161028890610ad8565b60405180910390fd5b600060018360ff1614156103145734600160008282546102b19190610af8565b925050819055503373ffffffffffffffffffffffffffffffffffffffff166108fc6002346102df919061098f565b9081150290604051600060405180830381858888f1935050505015801561030a573d6000803e3d6000fd5b5060019050610332565b34600160008282546103269190610b2c565b92505081905550600090505b801515343373ffffffffffffffffffffffffffffffffffffffff167f271b3e8d94a67ce5e9cee03d78c310019308ea7075468a4eb2bac8b027b14c4d8660405161037c9190610b91565b60405180910390a480915050919050565b61039561070a565b73ffffffffffffffffffffffffffffffffffffffff166103b36104f1565b73ffffffffffffffffffffffffffffffffffffffff1614610409576040517f08c379a000000000000000000000000000000000000000000000000000000000815260040161040090610bf8565b60405180910390fd5b6104136000610712565b565b600061041f61070a565b73ffffffffffffffffffffffffffffffffffffffff1661043d6104f1565b73ffffffffffffffffffffffffffffffffffffffff1614610493576040517f08c379a000000000000000000000000000000000000000000000000000000000815260040161048a90610bf8565b60405180910390fd5b3373ffffffffffffffffffffffffffffffffffffffff166108fc479081150290604051600060405180830381858888f193505050501580156104d9573d6000803e3d6000fd5b50600047146104eb576104ea610c18565b5b47905090565b60008060009054906101000a900473ffffffffffffffffffffffffffffffffffffffff16905090565b600047905090565b61052a61070a565b73ffffffffffffffffffffffffffffffffffffffff166105486104f1565b73ffffffffffffffffffffffffffffffffffffffff161461059e576040517f08c379a000000000000000000000000000000000000000000000000000000000815260040161059590610bf8565b60405180910390fd5b60003414156105ac57600080fd5b34600160008282546105be9190610b2c565b925050819055507fed7d0ddcc17abdb3935a0a23cd93e91b449dfeac7fd0def9f481ed5b37e18c4d33346040516105f6929190610c47565b60405180910390a147600154146106105761060f610c18565b5b565b61061a61070a565b73ffffffffffffffffffffffffffffffffffffffff166106386104f1565b73ffffffffffffffffffffffffffffffffffffffff161461068e576040517f08c379a000000000000000000000000000000000000000000000000000000000815260040161068590610bf8565b60405180910390fd5b600073ffffffffffffffffffffffffffffffffffffffff168173ffffffffffffffffffffffffffffffffffffffff1614156106fe576040517f08c379a00000000000000000000000000000000000000000000000000000000081526004016106f590610ce2565b60405180910390fd5b61070781610712565b50565b600033905090565b60008060009054906101000a900473ffffffffffffffffffffffffffffffffffffffff169050816000806101000a81548173ffffffffffffffffffffffffffffffffffffffff021916908373ffffffffffffffffffffffffffffffffffffffff1602179055508173ffffffffffffffffffffffffffffffffffffffff168173ffffffffffffffffffffffffffffffffffffffff167f8be0079c531659141344cd1fd0a4f28419497f9722a3daafe3b4186f6b6457e060405160405180910390a35050565b6000819050919050565b6107e9816107d6565b82525050565b600060208201905061080460008301846107e0565b92915050565b600080fd5b600060ff82169050919050565b6108258161080f565b811461083057600080fd5b50565b6000813590506108428161081c565b92915050565b60006020828403121561085e5761085d61080a565b5b600061086c84828501610833565b91505092915050565b60008115159050919050565b61088a81610875565b82525050565b60006020820190506108a56000830184610881565b92915050565b600073ffffffffffffffffffffffffffffffffffffffff82169050919050565b60006108d6826108ab565b9050919050565b6108e6816108cb565b82525050565b600060208201905061090160008301846108dd565b92915050565b610910816108cb565b811461091b57600080fd5b50565b60008135905061092d81610907565b92915050565b6000602082840312156109495761094861080a565b5b60006109578482850161091e565b91505092915050565b7f4e487b7100000000000000000000000000000000000000000000000000000000600052601160045260246000fd5b600061099a826107d6565b91506109a5836107d6565b9250817fffffffffffffffffffffffffffffffffffffffffffffffffffffffffffffffff04831182151516156109de576109dd610960565b5b828202905092915050565b600082825260208201905092915050565b7f5468697320636f6e747261637420646f6573206e6f74206861766520656e6f7560008201527f67682066756e647320746f20636f766572207468652062657400000000000000602082015250565b6000610a566039836109e9565b9150610a61826109fa565b604082019050919050565b60006020820190508181036000830152610a8581610a49565b9050919050565b7f53696465206d7573742062652030206f72203100000000000000000000000000600082015250565b6000610ac26013836109e9565b9150610acd82610a8c565b602082019050919050565b60006020820190508181036000830152610af181610ab5565b9050919050565b6000610b03826107d6565b9150610b0e836107d6565b925082821015610b2157610b20610960565b5b828203905092915050565b6000610b37826107d6565b9150610b42836107d6565b9250827fffffffffffffffffffffffffffffffffffffffffffffffffffffffffffffffff03821115610b7757610b76610960565b5b828201905092915050565b610b8b8161080f565b82525050565b6000602082019050610ba66000830184610b82565b92915050565b7f4f776e61626c653a2063616c6c6572206973206e6f7420746865206f776e6572600082015250565b6000610be26020836109e9565b9150610bed82610bac565b602082019050919050565b60006020820190508181036000830152610c1181610bd5565b9050919050565b7f4e487b7100000000000000000000000000000000000000000000000000000000600052600160045260246000fd5b6000604082019050610c5c60008301856108dd565b610c6960208301846107e0565b9392505050565b7f4f776e61626c653a206e6577206f776e657220697320746865207a65726f206160008201527f6464726573730000000000000000000000000000000000000000000000000000602082015250565b6000610ccc6026836109e9565b9150610cd782610c70565b604082019050919050565b60006020820190508181036000830152610cfb81610cbf565b905091905056fea26469706673582212205bb7c815168eee05e1d0f06cd8abc0e8c3be51049e697d243c788732d069103364736f6c634300080b0033",
  "immutableReferences": {},
  "source": "// SPDX-License-Identifier: GPL-3.0\nimport \"./../node_modules/@openzeppelin/contracts/access/Ownable.sol\";\n\npragma solidity ^0.8.11;\n\ncontract FlipContract is Ownable {\n\n    uint public ContractBalance;\n\n    event bet(address indexed user, uint indexed bet, bool indexed win, uint8 side);\n    event funded(address owner, uint funding);\n\n    //function to simulate coin flip 50/50 randoms\n    function flip(uint8 side) public payable returns (bool) {\n        require(address(this).balance >= msg.value * 2,\"This contract does not have enough funds to cover the bet\");\n        require(side == 0 || side == 1, \"Side must be 0 or 1\");\n        bool win;\n\n        // if (block.timestamp % 2 == side) {\n        if (side == 1) {\n            ContractBalance -= msg.value;\n            payable(msg.sender).transfer(msg.value * 2);\n            win = true;\n        } else {\n            ContractBalance += msg.value;\n            win = false;\n        }\n        emit bet(msg.sender,msg.value, win, side);\n        return win;\n    }\n\n    function withdrawAll() public onlyOwner returns(uint) {\n        payable(msg.sender).transfer(address(this).balance);\n        assert(address(this).balance == 0);\n        return address(this).balance;\n    }\n\n    function getBalance() public view returns(uint) {\n        return ContractBalance;\n    }\n    function getCurrentBalance() public view returns(uint) {\n        return address(this).balance;\n    }\n\n    function fundContract() public payable onlyOwner {\n        require(msg.value !=0);\n        ContractBalance += msg.value;\n        emit funded(msg.sender, msg.value);\n        assert(ContractBalance == address(this).balance);\n    }\n\n}",
  "sourcePath": "/Users/mdmotahiralam/mdWorld/blockChain/ethBet/truffle/contracts/FlipContract.sol",
  "compiler": {
    "name": "solc",
    "version": "0.8.11+commit.d7f03943.Emscripten.clang"
  },
  "schemaVersion": "3.4.5",
  "updatedAt": "2022-03-14T06:53:43.415Z",
  "networkType": "ethereum",
  "devdoc": {
    "kind": "dev",
    "methods": {
      "owner()": {
        "details": "Returns the address of the current owner."
      },
      "renounceOwnership()": {
        "details": "Leaves the contract without owner. It will not be possible to call `onlyOwner` functions anymore. Can only be called by the current owner. NOTE: Renouncing ownership will leave the contract without an owner, thereby removing any functionality that is only available to the owner."
      },
      "transferOwnership(address)": {
        "details": "Transfers ownership of the contract to a new account (`newOwner`). Can only be called by the current owner."
      }
    },
    "version": 1
  },
  "userdoc": {
    "kind": "user",
    "methods": {},
    "version": 1
  }
}